:1000000008308A00002800000A108A100A118207AE
:1000100031346D34563400340A108A100A118207C4
:1000200032346D34563400340A108A100A118207B3
:1000300033346D34563400340A108A100A118207A2
:1000400034346D34563400340A108A100A11820791
:1000500035346D34563400340A108A100A11820780
:1000600036346D34563400340A108A100A1182076F
:1000700037346D34563400340A108A100A1182075E
:1000800038346D34563400340A108A100A1182074D
:1000900039346D34563400340A108A100A1182073C
:1000A000313430346D34563400344230840083139C
:1000B0000008031968280230F800F701F70B5E28E2
:1000C000F80B5D289730F700F70B6428800B5B284E
:1000D0000800221047182214C70803197428831631
:1000E0000610831206147828831606108312061051
:1000F0000800A2104718A214C70803198428831601
:100100008610831286148828831686108312861020
:100110000800221147182215C708031994288316CE
:1001200006118312061598288316061183120611EC
:100130000800C70179209C28460EF039F7000F30DF
:1001400022057704A2008316860183122208860006
:10015000A9280130C7008920AD28AE28C701892011
:100160000800420EC4000F30C4054208C500F0303C
:10017000831686008312C7016920BE280130C7009C
:100180007920C2280130C7008920C6288316861727
:1001900083124610861B4614C7018920CF280130E0
:1001A000C7008920D328C701892000308316860024
:1001B000831246180130F800F808031DB7284308D9
:1001C000C7006920E3284408C60099204508C600F6
:1001D000992008000F30C2005520C7016920F0287F
:1001E0000330C60099200530C20055200330C600F8
:1001F00099200530C20055200330C60099200530F3
:10020000C20055200230C60099202030C200C30130
:10021000B1200C30C200C301B1200130C200C301C3
:10022000B1200630C200C301B1208A15252841083B
:100230000C3C031D23290130C200C301B120023050
:10024000C200552028294108C2000130C300B12056
:1002500008004108C3004008C2004308FA004208F1
:10026000840083137A188317800803193B29C20A74
:100270000319C30A2D2940084202F7004308FA0077
:100280004108031C410FFA027708F80008001030FB
:10029000C400F701FA01C10CC00C031C5529420827
:1002A000F7070318FA0A4308FA07FA0CF70CF90CD7
:1002B000F80CC40B4B2908008E30F7004308F800F7
:1002C0004208F900FA01F808031D70297908F800BE
:1002D000F9010830F702F808031D7029F7017829A1
:1002E0000310F81B7729F90DF80DF7037029F8139F
:1002F0000800420803193E2ACE00460803193E2A88
:10030000CE02031C88297F30CE0703183E2A8E298F
:100310008130CE02031C3E2A03193E2A4E08F70004
:10032000F801F901FA01CD014308CC00CC174408CB
:10033000CB004508CA001930CE004908CA0203188C
:10034000B1290130CB020318B129CC020318B1291D
:10035000CD020318B129CD0ACC0ACB0A4908CA0735
:10036000E3294808CB020318CC290130CC0203183A
:10037000CC29CD020318CC29CD0ACC0A4808CB07DA
:100380004908CA07031CE329CB0A031DE329CC0A49
:10039000031DE329CD0AE32947088038CC0203185E
:1003A000E2290130CD020318E229CD0A470880383E
:1003B000CC074808CB07031CC029CC0A031DC02961
:1003C000CD0AC0297A14CE0BE629F1290310CA0DF3
:1003D000CB0DCC0DCD0D0310FA0DF90DF80DCF0D91
:1003E0009D294F1CF9290310F80CF90CFA0CCF0CBD
:1003F000FC29F70303193E2ACF1B252A0310CA0D37
:10040000CB0DCC0DCD0D4908CA020318112A0130BD
:10041000CB020318112ACC020318112ACD02031CA7
:10042000342A4808CB0203181C2A0130CC020318D6
:100430001C2ACD02031C342A47088038CC0203183A
:10044000252A0130CD02031C342AFA0A031D342A5E
:10045000F90A031D342AF80A031D342AF70A03197E
:100460003E2AF80CF90CFA0C4308CE004708CE06D9
:10047000CE1F3C2AF817422AF813422AF701F80146
:10048000F901FA0108004D080319B32AD5005108F3
:100490000319B32AD5070318542A7F30D502031C49
:1004A000B32A0319B32A582A8130D5070318B32A6F
:1004B0005508F700F801F901FA014E08D900D917DB
:1004C0004F08D8005008D7001830D500D601571C67
:1004D000812A5408FA07031C732AF90A031D732A98
:1004E000F80A0319D6175308F907031C7A2AF80AE1
:1004F0000319D6175208CF00CF174F08F807031873
:10050000D617D60DF80CF90CFA0CD90CD80CD70C60
:100510000310D50B662A0130F7070318B32AF81B1E
:10052000982AD90DFA0DF90DF80DF7030319B32A1E
:10053000D91FA92AFA0A031DA92AF90A031DA92A03
:10054000F80A031DA92AF80CF90CFA0CF70A03198A
:10055000B32A4E08D6005208D606D61FB12AF8177D
:10056000B72AF813B72AF701F801F901FA010800D0
:100570008318BD2A553084008313F701F801F9016F
:10058000FA01D501D601D701D80154085304520409
:1005900051040319FB2A2030D9000310CD0DCE0DD4
:1005A000CF0DD00DD50DD60DD70DD80D540858024E
:1005B000031DE42A53085702031DE42A5208560279
:1005C000031DE42A51085502031CF52A5108D502DF
:1005D0005208031C520FD6025308031C530FD702B4
:1005E0005408031C540FD8020314F70DF80DF90D2D
:1005F000FA0DD90BCD2A55088000840A56088000D0
:10060000840A57088000840A5808800008002308DC
:1006100084008313241883174D088000840A800106
:10062000A30A0319A40A08000408C5004408C70067
:100630000319332B4308D0004208CF004108CE00F5
:100640004008CD00D401D3012030D2008230D10047
:1006500043227A08C3007908C2007808C1007708ED
:10066000C000C70B1A2B4308D0004208CF00410836
:10067000CE004008CD004D08B63CCD00FA014E0832
:10068000D100CE170310CE0CCF0CD00CFA0CF90C05
:10069000F80CF70CCD0B422BD11F592BF709F80999
:1006A000F909FA09F70A0319F80A0319F90A0319EB
:1006B000FA0A7A08C3007908C2007808C1007708EE
:1006C000C000C31F702BC503C516C009C109C209EC
:1006D000C309C00A0319C10A0319C20A0319C30ACC
:1006E0003B30CC009A30CB00CA30CA00C9010A3076
:1006F000C70044080319C50A8314403084008313DB
:100700004308D0004208CF004108CE004008CD0089
:100710004C08D4004B08D3004A08D2004908D10045
:10072000B8227808F708031DA82B440A47020319CA
:10073000A82B45080319AA2B0F3947020319A22B2E
:100740000318DA2BC51BDA2B451BAA2B2030D62B1E
:100750002030C505C51EB82BC5124408031DC503AE
:100760007708C5002D30CD0007234508F700C501E7
:1007700044084702031DC62B7708C5002E30CD0064
:1007800007234508F7002030C50500303030C51E6E
:10079000D62BC5124408031DC5037708C5002D30AC
:1007A000CD0007234508F700C5013030F70777086B
:1007B000CD00072383104C08D0004B08CF004A0817
:1007C000CE004908CD00D401D301D2010A30D100B6
:1007D000B8227A08CC007908CB007808CA007708DC
:0807E000C900C70B7C2B0800C7
:1010000003081F398300A401A30183161F129F1236
:101010001B0880399B0007309C0083138312A001BA
:10102000A101723083168F000F081F129F121B0838
:1010300080390F389B001F1783121F179F138316C9
:101040009F1783121F148A11EA288A150C30C100D9
:101050008A1117218A155730C1008A1117218A1564
:101060006530C1008A1117218A156C30C1008A11C0
:1010700017218A156330C1008A1117218A156F3034
:10108000C1008A1117218A156D30C1008A111721FC
:101090008A156530C1008A1117218A150430C000F5
:1010A000FA30C2008A1155208A15C00B502808302A
:1010B000F8001F08C73978049F000130C2008A1168
:1010C00055208A151F151F19632883161E088312C1
:1010D000B9001E08BA00BA08031D7C2B3908013C70
:1010E000031C7C2B2030F8001F08C73978049F00B0
:1010F0000130C2008A1155208A151F151F197E283C
:1011000083161E088312B9001E08BA003A08013C73
:10111000031CC928031D90283908223C031CC92838
:101120000C30C1008A1117218A15C001C101253078
:10113000840083134008840741088A1104208A151B
:10114000800000380319A728C10AC00A9728BF01E8
:10115000C1012530C0008A1129218A1578083F0273
:101160000318BE2825303F07840083130008C00001
:10117000C1008A1117218A15BF0AA8280430C000AF
:10118000FA30C2008A1155208A15C00BC028572892
:101190007C2B3A08003C03181729FF3A031DD4287A
:1011A0003908223C031817293A08013C031C172967
:1011B000031DDE2839085C3C031C17290C30C100D4
:1011C0008A1117218A15C001C101253084008313BB
:1011D0004008840741088A110C208A1580000038D5
:1011E0000319F528C10AC00AE528BF01C10125304D
:1011F000C0008A1129218A1578083F0203180C299A
:1012000025303F07840083130008C000C1008A1105
:1012100017218A15BF0AF6280430C000FA30C20030
:101220008A1155208A15C00B0E2957287C2B3A08A5
:10123000003C03186529FF3A031D222939085C3C4C
:10124000031865293A08013C031C6529031D2C2954
:101250003908963C031C65290C30C1008A111721FE
:101260008A15C001C101253084008313400884071A
:1012700041088A1114208A15800000380319432977
:10128000C10AC00A3329BF01C1012530C0008A113B
:1012900029218A1578083F0203185A2925303F076B
:1012A000840083130008C000C1008A1117218A1529
:1012B000BF0A44290430C000FA30C2008A11552008
:1012C0008A15C00B5C2957287C2B3A08003C031870
:1012D000B329FF3A031D70293908963C0318B32936
:1012E0003A08013C031CB329031D7A293908D03C74
:1012F000031CB3290C30C1008A1117218A15C001C3
:10130000C1012530840083134008840741088A11F5
:101310001C208A158000003803199129C10AC00ACF
:101320008129BF01C1012530C0008A1129218A15F8
:1013300078083F020318A82925303F07840083134B
:101340000008C000C1008A1117218A15BF0A92291E
:101350000430C000FA30C2008A1155208A15C00B33
:10136000AA2957287C2B3A08003C0318012AFF3A87
:10137000031DBE293908D03C0318012A3A08023C53
:10138000031C012A031DC8293908093C031C012A32
:101390000C30C1008A1117218A15C001C101253006
:1013A000840083134008840741088A1124208A1589
:1013B000800000380319DF29C10AC00ACF29BF0104
:1013C000C1012530C0008A1129218A1578083F0201
:1013D0000318F62925303F07840083130008C00056
:1013E000C1008A1117218A15BF0AE0290430C00004
:1013F000FA30C2008A1155208A15C00BF8295728E7
:101400007C2B3A08013C03184F2AFF3A031D0C2A93
:101410003908093C03184F2A3A08023C031C4F2A9A
:10142000031D162A3908433C031C4F2A0C30C10007
:101430008A1117218A15C001C10125308400831348
:101440004008840741088A112C208A158000003842
:1014500003192D2AC10AC00A1D2ABF01C101253066
:10146000C0008A1129218A1578083F020318442AEE
:1014700025303F07840083130008C000C1008A1193
:1014800017218A15BF0A2E2A0430C000FA30C20084
:101490008A1155208A15C00B462A57287C2B3A08FA
:1014A000013C03189D2AFF3A031D5A2A3908433C80
:1014B00003189D2A3A08023C031C9D2A031D642A36
:1014C00039087D3C031C9D2A0C30C1008A1117216C
:1014D0008A15C001C10125308400831340088407A8
:1014E00041088A1134208A158000003803197B2AAC
:1014F000C10AC00A6B2ABF01C1012530C0008A1190
:1015000029218A1578083F020318922A25303F07BF
:10151000840083130008C000C1008A1117218A15B6
:10152000BF0A7C2A0430C000FA30C2008A1155205C
:101530008A15C00B942A57287C2B3A08013C0318C3
:10154000EB2AFF3A031DA82A39087D3C0318EB2A31
:101550003A08023C031CEB2A031DB22A3908B73CA7
:10156000031CEB2A0C30C1008A1117218A15C00117
:10157000C1012530840083134008840741088A1183
:101580003C208A15800000380319C92AC10AC00A04
:10159000B92ABF01C1012530C0008A1129218A154D
:1015A00078083F020318E02A25303F0784008313A0
:1015B0000008C000C1008A1117218A15BF0ACA2A73
:1015C0000430C000FA30C2008A1155208A15C00BC1
:1015D000E22A57287C2B3A08013C0318392BFF3AA2
:1015E000031DF62A3908B73C0318392B3A08023C88
:1015F000031C392B031D002B3908F13C031C392B2C
:101600000C30C1008A1117218A15C001C101253093
:10161000840083134008840741088A1144208A15F6
:10162000800000380319172BC10AC00A072BBF011D
:10163000C1012530C0008A1129218A1578083F028E
:1016400003182E2B25303F07840083130008C000A9
:10165000C1008A1117218A15BF0A182B0430C00057
:10166000FA30C2008A1155208A15C00B302B57283A
:101670007C2B3A08013C03187C2BFF3A031D442BBA
:101680003908F13C03187C2B0C30C1008A1117215A
:101690008A15C001C10125308400831340088407E6
:1016A00041088A114C208A158000003803195B2BF1
:1016B000C10AC00A4B2BBF01C1012530C0008A11ED
:1016C00029218A1578083F020318722B25303F071D
:1016D000840083130008C000C1008A1117218A15F5
:1016E000BF0A5C2B0430C000FA30C2008A115520BA
:1016F0008A15C00B742B57283A08033C031C082C8E
:10170000031D862B3908FE3C031C082C3A08C10037
:101710003908C000C3010530C2008A1147218A156B
:101720007908C1007808C0004108C3004008C20021
:101730008A115C218A157A08C5007908C4007808E6
:10174000C3007708C200C901C801C7018930C600BB
:101750008A1179218A157A08C3007908C2007808AD
:10176000C1007708C0004308D0004208CF004108FC
:10177000CE004008CD00D401D301D2018030D10089
:101780008A1143228A157A08BE007908BD007808BC
:10179000BC007708BB000C30C1008A1117218A15E4
:1017A000A4012530A300893084003E08C3003D0811
:1017B000C2003C08C1003B08C0000630C4008A11CA
:1017C00014238A15BF01C1012530C0008A112921C7
:1017D0008A1578083F020318F92B25303F0784004B
:1017E00083130008C000C1008A1117218A15BF0A9F
:1017F000E32B5630C1008A1117218A150430C0002E
:10180000FA30C2008A1155208A15C00B002C3F2DDA
:101810001030F8001F08C73978049F000130C2005B
:101820008A1155208A151F151F19142C83161E089E
:101830008312B9001E08BA003A08033C031CA92C05
:10184000031D262C3908FE3C031CA92C3A08C100B4
:101850003908C000C3010530C2008A1147218A152A
:101860007908C1007808C0004108C3004008C200E0
:101870008A115C218A157A08C5007908C4007808A5
:10188000C3007708C200C901C801C7018930C6007A
:101890008A1179218A157A08BE007908BD00780876
:1018A000BC007708BB003E08D0003D08CF003C08D4
:1018B000CE003B08CD00D401D3012030D2008130CE
:1018C000D1008A1143228A157A08BE007908BD002A
:1018D0007808BC007708BB000C30C1008A111721C2
:1018E0008A15A4012530A300893084003E08C30076
:1018F0003D08C2003C08C1003B08C0000630C400DF
:101900008A1114238A15BF01C1012530C0008A1134
:1019100029218A1578083F0203189A2C25303F07A1
:10192000840083130008C000C1008A1117218A15A2
:10193000BF0A842C5630C1008A1117218A15043041
:10194000C000FA30C2008A1155208A15C00BA12CA4
:101950003F2D1830F8001F08C73978049F00013068
:10196000C2008A1155208A151F151F19B52C831620
:101970001E088312B9001E08BA003A08C1003908CF
:10198000C000C3010530C2008A1147218A157908B9
:10199000C1007808C0004108C3004008C2008A1195
:1019A0005C218A157A08C5007908C4007808C3004C
:1019B0007708C200C901C801C7018930C6008A1171
:1019C00079218A157A08BE007908BD007808BC0024
:1019D0007708BB003E08D0003D08CF003C08CE0091
:1019E0003B08CD00D401D3011030D2008230D100A9
:1019F0008A1143228A157A08BE007908BD0078084A
:101A0000BC007708BB000C30C1008A1117218A1571
:101A1000A4012530A300893084003E08C3003D089E
:101A2000C2003C08C1003B08C0000630C4008A1157
:101A300014238A15BF01C1012530C0008A11292154
:101A40008A1578083F020318312D25303F0784009E
:101A500083130008C000C1008A1117218A15BF0A2C
:101A60001B2D5630C1008A1117218A150430C00081
:101A7000FA30C2008A1155208A15C00B382D57281C
:021A8000630001
:04400E00503FFF3FE1
:00000001FF
;PIC16F88
;CRC=3949  CREATED="11-Mar-23 23:21"
